{
  "transactions": [
    {
      "hash": "0x06e98f1298b321220e229cd67df28c3a64dddc1d9edfde1e6d047f62b74c4f12",
      "transactionType": "CALL",
      "contractName": null,
      "contractAddress": "0x19e04284a6916551ffabe09d6fb8e1d7a382d31e",
      "function": "mintNft(string)",
      "arguments": [
        "ipfs://bafybeig37ioir76s7mg5oobetncojcm3c3hxasyd4rvid4jqhy4gkaheg4/?filename=0-PUG.json"
      ],
      "transaction": {
        "from": "0xf98891e4d1b088c12aa6653191fd9c2664fafe0e",
        "to": "0x19e04284a6916551ffabe09d6fb8e1d7a382d31e",
        "gas": "0x3f5bc",
        "value": "0x0",
        "input": "0xda86f4a900000000000000000000000000000000000000000000000000000000000000200000000000000000000000000000000000000000000000000000000000000057697066733a2f2f62616679626569673337696f6972373673376d67356f6f6265746e636f6a636d3363336878617379643472766964346a71687934676b61686567342f3f66696c656e616d653d302d5055472e6a736f6e000000000000000000",
        "nonce": "0x310",
        "chainId": "0xaa36a7"
      },
      "additionalContracts": [],
      "isFixedGasLimit": false
    }
  ],
  "receipts": [
    {
      "status": "0x1",
      "cumulativeGasUsed": "0xe5f50a",
      "logs": [
        {
          "address": "0x19e04284a6916551ffabe09d6fb8e1d7a382d31e",
          "topics": [
            "0xddf252ad1be2c89b69c2b068fc378daa952ba7f163c4a11628f55a4df523b3ef",
            "0x0000000000000000000000000000000000000000000000000000000000000000",
            "0x000000000000000000000000f98891e4d1b088c12aa6653191fd9c2664fafe0e",
            "0x0000000000000000000000000000000000000000000000000000000000000000"
          ],
          "data": "0x",
          "blockHash": "0x2e987305715ca9381ad445853a0d78db3d554d2243fa996a52dd2d5685782c82",
          "blockNumber": "0x9fdaea",
          "blockTimestamp": "0x69bbd1a8",
          "transactionHash": "0x06e98f1298b321220e229cd67df28c3a64dddc1d9edfde1e6d047f62b74c4f12",
          "transactionIndex": "0x90",
          "logIndex": "0x10b",
          "removed": false
        }
      ],
      "logsBloom": "0x00000000000000000000000000000000000000000000000000000000000000000000000000000000000040000000000000000000000000000000000000000000000000000000200000000008000000000000000000000000000000000000000000000000020010000000000000000800000000000000000000000010000000000000000000000000000000000000000000000000000000000000000000000000000000000000000000000000000000000000000000000000000000100000000000000002000000000000000200000000000000000000000000000000000020000000000000000000000000000000000000000000004000000000000000000000",
      "type": "0x2",
      "transactionHash": "0x06e98f1298b321220e229cd67df28c3a64dddc1d9edfde1e6d047f62b74c4f12",
      "transactionIndex": "0x90",
      "blockHash": "0x2e987305715ca9381ad445853a0d78db3d554d2243fa996a52dd2d5685782c82",
      "blockNumber": "0x9fdaea",
      "gasUsed": "0x2ddee",
      "effectiveGasPrice": "0xf424a",
      "from": "0xf98891e4d1b088c12aa6653191fd9c2664fafe0e",
      "to": "0x19e04284a6916551ffabe09d6fb8e1d7a382d31e",
      "contractAddress": null
    }
  ],
  "libraries": [],
  "pending": [],
  "returns": {},
  "timestamp": 1773916584763,
  "chain": 11155111,
  "commit": null
}